{
  "address": "0xc3f4d0cBA1E1b4813C36a896C16961EFFee180AD",
  "abi": [
    {
      "inputs": [
        {
          "internalType": "uint32[8]",
          "name": "_posWeights",
          "type": "uint32[8]"
        },
        {
          "internalType": "uint32[8]",
          "name": "_negWeights",
          "type": "uint32[8]"
        },
        {
          "internalType": "uint32",
          "name": "_bias",
          "type": "uint32"
        },
        {
          "internalType": "uint32",
          "name": "_threshold",
          "type": "uint32"
        }
      ],
      "stateMutability": "nonpayable",
      "type": "constructor"
    },
    {
      "inputs": [
        {
          "internalType": "bytes32",
          "name": "handle",
          "type": "bytes32"
        },
        {
          "internalType": "address",
          "name": "sender",
          "type": "address"
        }
      ],
      "name": "SenderNotAllowedToUseHandle",
      "type": "error"
    },
    {
      "inputs": [],
      "name": "ZamaProtocolUnsupported",
      "type": "error"
    },
    {
      "anonymous": false,
      "inputs": [
        {
          "indexed": true,
          "internalType": "address",
          "name": "user",
          "type": "address"
        },
        {
          "indexed": false,
          "internalType": "uint256",
          "name": "timestamp",
          "type": "uint256"
        },
        {
          "indexed": false,
          "internalType": "uint32",
          "name": "modelVersion",
          "type": "uint32"
        }
      ],
      "name": "ApplicationSubmitted",
      "type": "event"
    },
    {
      "anonymous": false,
      "inputs": [
        {
          "indexed": true,
          "internalType": "address",
          "name": "user",
          "type": "address"
        },
        {
          "indexed": true,
          "internalType": "address",
          "name": "lender",
          "type": "address"
        }
      ],
      "name": "LenderAuthorized",
      "type": "event"
    },
    {
      "anonymous": false,
      "inputs": [
        {
          "indexed": false,
          "internalType": "uint32",
          "name": "newVersion",
          "type": "uint32"
        }
      ],
      "name": "ModelUpdated",
      "type": "event"
    },
    {
      "anonymous": false,
      "inputs": [
        {
          "indexed": true,
          "internalType": "address",
          "name": "previousOperator",
          "type": "address"
        },
        {
          "indexed": true,
          "internalType": "address",
          "name": "newOperator",
          "type": "address"
        }
      ],
      "name": "OperatorTransferred",
      "type": "event"
    },
    {
      "inputs": [],
      "name": "MARGIN_GOLD",
      "outputs": [
        {
          "internalType": "uint32",
          "name": "",
          "type": "uint32"
        }
      ],
      "stateMutability": "view",
      "type": "function"
    },
    {
      "inputs": [],
      "name": "MARGIN_SILVER",
      "outputs": [
        {
          "internalType": "uint32",
          "name": "",
          "type": "uint32"
        }
      ],
      "stateMutability": "view",
      "type": "function"
    },
    {
      "inputs": [],
      "name": "NUM_FEATURES",
      "outputs": [
        {
          "internalType": "uint8",
          "name": "",
          "type": "uint8"
        }
      ],
      "stateMutability": "view",
      "type": "function"
    },
    {
      "inputs": [
        {
          "internalType": "address",
          "name": "user",
          "type": "address"
        }
      ],
      "name": "applicationExists",
      "outputs": [
        {
          "internalType": "bool",
          "name": "",
          "type": "bool"
        }
      ],
      "stateMutability": "view",
      "type": "function"
    },
    {
      "inputs": [
        {
          "internalType": "address",
          "name": "user",
          "type": "address"
        }
      ],
      "name": "applicationTimestamp",
      "outputs": [
        {
          "internalType": "uint256",
          "name": "",
          "type": "uint256"
        }
      ],
      "stateMutability": "view",
      "type": "function"
    },
    {
      "inputs": [
        {
          "internalType": "address",
          "name": "lender",
          "type": "address"
        }
      ],
      "name": "authorizeLender",
      "outputs": [],
      "stateMutability": "nonpayable",
      "type": "function"
    },
    {
      "inputs": [],
      "name": "bias",
      "outputs": [
        {
          "internalType": "uint32",
          "name": "",
          "type": "uint32"
        }
      ],
      "stateMutability": "view",
      "type": "function"
    },
    {
      "inputs": [],
      "name": "confidentialProtocolId",
      "outputs": [
        {
          "internalType": "uint256",
          "name": "",
          "type": "uint256"
        }
      ],
      "stateMutability": "view",
      "type": "function"
    },
    {
      "inputs": [],
      "name": "getMyScore",
      "outputs": [
        {
          "internalType": "euint32",
          "name": "",
          "type": "bytes32"
        }
      ],
      "stateMutability": "view",
      "type": "function"
    },
    {
      "inputs": [],
      "name": "getMyTier",
      "outputs": [
        {
          "internalType": "euint32",
          "name": "",
          "type": "bytes32"
        }
      ],
      "stateMutability": "view",
      "type": "function"
    },
    {
      "inputs": [],
      "name": "getMyVerdict",
      "outputs": [
        {
          "internalType": "ebool",
          "name": "",
          "type": "bytes32"
        }
      ],
      "stateMutability": "view",
      "type": "function"
    },
    {
      "inputs": [
        {
          "internalType": "address",
          "name": "user",
          "type": "address"
        }
      ],
      "name": "getTierFor",
      "outputs": [
        {
          "internalType": "euint32",
          "name": "",
          "type": "bytes32"
        }
      ],
      "stateMutability": "view",
      "type": "function"
    },
    {
      "inputs": [
        {
          "internalType": "address",
          "name": "user",
          "type": "address"
        }
      ],
      "name": "getVerdictFor",
      "outputs": [
        {
          "internalType": "ebool",
          "name": "",
          "type": "bytes32"
        }
      ],
      "stateMutability": "view",
      "type": "function"
    },
    {
      "inputs": [],
      "name": "modelVersion",
      "outputs": [
        {
          "internalType": "uint32",
          "name": "",
          "type": "uint32"
        }
      ],
      "stateMutability": "view",
      "type": "function"
    },
    {
      "inputs": [
        {
          "internalType": "uint256",
          "name": "",
          "type": "uint256"
        }
      ],
      "name": "negWeights",
      "outputs": [
        {
          "internalType": "uint32",
          "name": "",
          "type": "uint32"
        }
      ],
      "stateMutability": "view",
      "type": "function"
    },
    {
      "inputs": [],
      "name": "operator",
      "outputs": [
        {
          "internalType": "address",
          "name": "",
          "type": "address"
        }
      ],
      "stateMutability": "view",
      "type": "function"
    },
    {
      "inputs": [
        {
          "internalType": "uint256",
          "name": "",
          "type": "uint256"
        }
      ],
      "name": "posWeights",
      "outputs": [
        {
          "internalType": "uint32",
          "name": "",
          "type": "uint32"
        }
      ],
      "stateMutability": "view",
      "type": "function"
    },
    {
      "inputs": [
        {
          "internalType": "externalEuint32[8]",
          "name": "encryptedFeatures",
          "type": "bytes32[8]"
        },
        {
          "internalType": "bytes",
          "name": "inputProof",
          "type": "bytes"
        }
      ],
      "name": "submitApplication",
      "outputs": [],
      "stateMutability": "nonpayable",
      "type": "function"
    },
    {
      "inputs": [],
      "name": "threshold",
      "outputs": [
        {
          "internalType": "uint32",
          "name": "",
          "type": "uint32"
        }
      ],
      "stateMutability": "view",
      "type": "function"
    },
    {
      "inputs": [],
      "name": "totalApplications",
      "outputs": [
        {
          "internalType": "uint256",
          "name": "",
          "type": "uint256"
        }
      ],
      "stateMutability": "view",
      "type": "function"
    },
    {
      "inputs": [
        {
          "internalType": "address",
          "name": "newOperator",
          "type": "address"
        }
      ],
      "name": "transferOperator",
      "outputs": [],
      "stateMutability": "nonpayable",
      "type": "function"
    },
    {
      "inputs": [
        {
          "internalType": "uint32[8]",
          "name": "_posWeights",
          "type": "uint32[8]"
        },
        {
          "internalType": "uint32[8]",
          "name": "_negWeights",
          "type": "uint32[8]"
        },
        {
          "internalType": "uint32",
          "name": "_bias",
          "type": "uint32"
        },
        {
          "internalType": "uint32",
          "name": "_threshold",
          "type": "uint32"
        }
      ],
      "name": "updateModel",
      "outputs": [],
      "stateMutability": "nonpayable",
      "type": "function"
    }
  ],
  "transactionHash": "0x0300782f1e0bef8b3669b46ba30fadf9b5b26ade6527e0e9c5b3cf8ad5f5b6ec",
  "args": [
    [
      260,
      0,
      30,
      4,
      0,
      0,
      2,
      5
    ],
    [
      0,
      40,
      0,
      0,
      23,
      144,
      0,
      0
    ],
    10000,
    10839
  ],
  "numDeployments": 2,
  "solcInputHash": "070e7118f4432d49267b6d7aa3cbf26e",
  "bytecode": "0x608060405234801562000010575f80fd5b5060405162001dee38038062001dee83398101604081905262000033916200046b565b620000ea6200004162000164565b80517f9e7b61f58c47dc699ac88507c4f5bb9f121c03808c5676a8078fe583e464970080546001600160a01b03199081166001600160a01b039384161790915560208301517f9e7b61f58c47dc699ac88507c4f5bb9f121c03808c5676a8078fe583e46497018054831691841691909117905560408301517f9e7b61f58c47dc699ac88507c4f5bb9f121c03808c5676a8078fe583e46497028054909216921691909117905550565b620000f85f85600862000316565b5062000108600184600862000316565b50600280546c0100000000000000000000000033026001600160401b0363ffffffff948516640100000000026001600160401b031990931694909516939093171792909216176801000000000000000017905550620004cb9050565b604080516060810182525f808252602082018190529181019190915246600103620001fe575060408051606080820183525f8083526020808401829052928401528251908101835273ca2e8f1f656cd25c01f05d0b243ab1ecd4a8ffb6815273d82385dada1ae3e969447f20a3164f6213100e75918101919091527377627828a55156b04ac0dc0eb30467f1a552bb039181019190915290565b4662aa36a7036200027e575060408051606080820183525f8083526020808401829052928401528251908101835273f0ffdc93b7e186bc2f8cb3daa75d86d1930a433d81527392c920834ec8941d2c77d188936e1f7a6f49c1279181019190915273be0e383937d564d7ff0bc3b46c51f0bf8d5c311a9181019190915290565b46617a6903620002fd575060408051606080820183525f808352602080840182905292840152825190810183527350157cffd6bbfa2dece204a89ec419c23ef5755d815273e3a9105a3a932253a70f126eb1e3b589c643dd249181019190915273901f8942346f7ab3a01f6d7613119bca447bb0309181019190915290565b6040516373cac13b60e01b815260040160405180910390fd5b600183019183908215620003a6579160200282015f5b838211156200037257835183826101000a81548163ffffffff021916908363ffffffff16021790555092602001926004016020816003010492830192600103026200032c565b8015620003a45782816101000a81549063ffffffff021916905560040160208160030104928301926001030262000372565b505b50620003b4929150620003b8565b5090565b5b80821115620003b4575f8155600101620003b9565b805163ffffffff81168114620003e2575f80fd5b919050565b5f82601f830112620003f7575f80fd5b6040516101008082016001600160401b03811183821017156200042857634e487b7160e01b5f52604160045260245ffd5b604052830181858211156200043b575f80fd5b845b8281101562000460576200045181620003ce565b8252602091820191016200043d565b509195945050505050565b5f805f80610240858703121562000480575f80fd5b6200048c8686620003e7565b93506200049e866101008701620003e7565b9250620004af6102008601620003ce565b9150620004c06102208601620003ce565b905092959194509250565b61191580620004d95f395ff3fe608060405234801561000f575f80fd5b5060043610610179575f3560e01c80636425f94a116100d2578063ca5fd2d611610088578063edb3ba0b11610063578063edb3ba0b1461033e578063f1599f2c14610355578063fb87be281461035d575f80fd5b8063ca5fd2d614610301578063cc960b7f14610309578063d33ae18f14610335575f80fd5b80639570be4a116100b85780639570be4a146102d2578063a7611356146102e5578063adb1b39f146102ee575f80fd5b80636425f94a146102b75780638927b030146102ca575f80fd5b806342cde4e811610132578063570ca7351161010d578063570ca7351461022c5780635c014c841461025e578063633b758614610271575f80fd5b806342cde4e8146101ee57806343e18b501461020657806351dcdb8214610219575f80fd5b806329605e771161016257806329605e77146101b05780632ac257c9146101c557806342c75cd2146101e6575f80fd5b8063054816cc1461017d5780630c883186146101a7575b5f80fd5b60025461018d9063ffffffff1681565b60405163ffffffff90911681526020015b60405180910390f35b61018d61138881565b6101c36101be366004611601565b610377565b005b6101d86101d3366004611601565b61049c565b60405190815260200161019e565b6101d861052c565b60025461018d90640100000000900463ffffffff1681565b6101d8610214366004611601565b6105a4565b6101c3610227366004611601565b610634565b60025461024690600160601b90046001600160a01b031681565b6040516001600160a01b03909116815260200161019e565b6101c361026c3660046116bd565b61075e565b6102a761027f366004611601565b6001600160a01b03165f90815260036020526040902060040154640100000000900460ff1690565b604051901515815260200161019e565b61018d6102c5366004611714565b61088e565b6101d86108bc565b6101c36102e036600461172b565b6108ca565b6101d860045481565b61018d6102fc366004611714565b610c68565b6101d8610c77565b6101d8610317366004611601565b6001600160a01b03165f908152600360208190526040909120015490565b61018d6107d081565b60025461018d90600160401b900463ffffffff1681565b6101d8610cef565b610365600881565b60405160ff909116815260200161019e565b600254600160601b90046001600160a01b031633146103e85760405162461bcd60e51b815260206004820152602260248201527f5265646163743a2063616c6c6572206973206e6f7420746865206f706572617460448201526137b960f11b60648201526084015b60405180910390fd5b6001600160a01b03811661043e5760405162461bcd60e51b815260206004820152601560248201527f5265646163743a207a65726f206f70657261746f72000000000000000000000060448201526064016103df565b600280546001600160a01b03838116600160601b8181026bffffffffffffffffffffffff85161790945560405193909204169182907f74da04524d50c64947f5dd5381ef1a4dca5cba8ed1d816243f9e48aa0b5617ed905f90a35050565b6001600160a01b0381165f90815260036020526040812060040154640100000000900460ff1661050e5760405162461bcd60e51b815260206004820152601f60248201527f5265646163743a206e6f206170706c69636174696f6e20666f7220757365720060448201526064016103df565b506001600160a01b03165f9081526003602052604090206001015490565b335f90815260036020526040812060040154640100000000900460ff1661058e5760405162461bcd60e51b81526020600482015260166024820152752932b230b1ba1d1037379030b8383634b1b0ba34b7b760511b60448201526064016103df565b50335f9081526003602052604090206001015490565b6001600160a01b0381165f90815260036020526040812060040154640100000000900460ff166106165760405162461bcd60e51b815260206004820152601f60248201527f5265646163743a206e6f206170706c69636174696f6e20666f7220757365720060448201526064016103df565b506001600160a01b03165f9081526003602052604090206002015490565b335f90815260036020526040902060040154640100000000900460ff166106965760405162461bcd60e51b81526020600482015260166024820152752932b230b1ba1d1037379030b8383634b1b0ba34b7b760511b60448201526064016103df565b6001600160a01b0381166106ec5760405162461bcd60e51b815260206004820152601360248201527f5265646163743a207a65726f206c656e6465720000000000000000000000000060448201526064016103df565b335f908152600360205260409020600101546107089082610d64565b50335f908152600360205260409020600201546107259082610d89565b506040516001600160a01b0382169033907fb49ae8e7ef17403ee32f51d237f1996a753bd983b5e7234a52e65e2d19c3356e905f90a350565b600254600160601b90046001600160a01b031633146107ca5760405162461bcd60e51b815260206004820152602260248201527f5265646163743a2063616c6c6572206973206e6f7420746865206f706572617460448201526137b960f11b60648201526084016103df565b6107d65f856008611537565b506107e46001846008611537565b506002805463ffffffff8381166401000000000267ffffffffffffffff1990921681861617919091178083556001929160089161082a918591600160401b9004166117c1565b82546101009290920a63ffffffff818102199093169183160217909155600254604051600160401b90910490911681527f5062ad7b0d2943418f96eac861bb8d749913ed480918d90c06d80b4871379dcb915060200160405180910390a150505050565b5f816008811061089c575f80fd5b60089182820401919006600402915054906101000a900463ffffffff1681565b5f6108c5610d98565b905090565b6108d26115ce565b5f5b600860ff8216101561095a57610938858260ff16600881106108f8576108f86117e5565b602002013585858080601f0160208091040260200160405190810160405280939291908181526020018383808284375f92019190915250610dcc92505050565b828260ff166008811061094d5761094d6117e5565b60200201526001016108d4565b506002545f9061096f9063ffffffff16610e32565b90505f61098d600260049054906101000a900463ffffffff16610e32565b90505f5b600860ff82161015610aad575f8160ff16600881106109b2576109b26117e5565b60088104919091015460079091166004026101000a900463ffffffff1615610a3357610a3083610a2b868460ff16600881106109f0576109f06117e5565b60200201515f8560ff1660088110610a0a57610a0a6117e5565b600891828204019190066004029054906101000a900463ffffffff16610e44565b610e6f565b92505b60018160ff1660088110610a4957610a496117e5565b60088104919091015460079091166004026101000a900463ffffffff1615610aa557610aa282610a2b868460ff1660088110610a8757610a876117e5565b602002015160018560ff1660088110610a0a57610a0a6117e5565b91505b600101610991565b505f610ab98383610e9d565b90505f610ad184610acc856107d0610ecb565b610e9d565b90505f610ae485610acc86611388610ecb565b90505f610b1f82610af56003610e32565b610b1a86610b036002610e32565b610b1a8a610b116001610e32565b610b1a5f610e32565b610eef565b6040805160c081018252888152602080820188815282840185815242606085019081526002805463ffffffff600160401b909104811660808801908152600160a08901818152335f9081526003998a90529a909a209851895595519588019590955592519086015551928401929092555160049092018054935115156401000000000264ffffffffff1990941692909116919091179190911790559050610bc586610f36565b50610bcf84610f56565b50610bd981610f36565b50610be48633610d89565b50610bef8433610d64565b50610bfa8133610d89565b50600160045f828254610c0d91906117f9565b909155505060025460408051428152600160401b90920463ffffffff16602083015233917f2e03a26cd980b0a01fe59d17f294df4ae2ebe01e02d0d433a053139eebd9b909910160405180910390a250505050505050505050565b6001816008811061089c575f80fd5b335f90815260036020526040812060040154640100000000900460ff16610cd95760405162461bcd60e51b81526020600482015260166024820152752932b230b1ba1d1037379030b8383634b1b0ba34b7b760511b60448201526064016103df565b50335f9081526003602052604090206002015490565b335f90815260036020526040812060040154640100000000900460ff16610d515760405162461bcd60e51b81526020600482015260166024820152752932b230b1ba1d1037379030b8383634b1b0ba34b7b760511b60448201526064016103df565b50335f9081526003602052604090205490565b5f82610d7657610d735f610f61565b92505b610d808383610f7c565b50815b92915050565b5f82610d7657610d735f610e32565b5f46600103610da75750600190565b4662aa36a703610db8575061271190565b46617a6903610dc757505f1990565b505f90565b5f81515f14610de857610de183836004611005565b9050610d83565b825f819003610e0257610dfa5f610e32565b915050610d83565b610e0c8133611125565b610de157604051630276b5d960e01b8152600481018290523360248201526044016103df565b5f610d838263ffffffff1660046111bc565b5f82610e5657610e535f610e32565b92505b610e688363ffffffff84166001611271565b9392505050565b5f82610e8157610e7e5f610e32565b92505b81610e9257610e8f5f610e32565b91505b610e6883835f611354565b5f82610eaf57610eac5f610e32565b92505b81610ec057610ebd5f610e32565b91505b610e6883835f6113f1565b5f82610edd57610eda5f610e32565b92505b610e688363ffffffff84166001611354565b5f83610f0157610efe5f610f61565b93505b82610f1257610f0f5f610e32565b92505b81610f2357610f205f610e32565b91505b610f2e84848461148e565b949350505050565b5f81610f4857610f455f610e32565b91505b610f528230610f7c565b5090565b5f81610f4857610f455f5b5f610d8382610f70575f610f73565b60015b60ff165f6111bc565b5f7f9e7b61f58c47dc699ac88507c4f5bb9f121c03808c5676a8078fe583e46497008054604051635ca4b5b160e11b8152600481018690526001600160a01b03858116602483015292935091169063b9496b62906044015f604051808303815f87803b158015610fea575f80fd5b505af1158015610ffc573d5f803e3d5ffd5b50505050505050565b7f9e7b61f58c47dc699ac88507c4f5bb9f121c03808c5676a8078fe583e46497015460405163045fc19560e11b81525f917f9e7b61f58c47dc699ac88507c4f5bb9f121c03808c5676a8078fe583e4649700916001600160a01b03909116906308bf832a9061107e90889033908990899060040161182c565b6020604051808303815f875af115801561109a573d5f803e3d5ffd5b505050506040513d601f19601f820116820180604052508101906110be9190611895565b8154604051630f8e573b60e21b8152600481018390523360248201529193506001600160a01b031690633e395cec906044015f604051808303815f87803b158015611107575f80fd5b505af1158015611119573d5f803e3d5ffd5b50505050509392505050565b5f807f9e7b61f58c47dc699ac88507c4f5bb9f121c03808c5676a8078fe583e464970080546040516382027b6d60e01b8152600481018790526001600160a01b0386811660248301529293509116906382027b6d90604401602060405180830381865afa158015611198573d5f803e3d5ffd5b505050506040513d601f19601f82011682018060405250810190610f2e91906118ac565b7f9e7b61f58c47dc699ac88507c4f5bb9f121c03808c5676a8078fe583e464970154604051639cd07acb60e01b81525f917f9e7b61f58c47dc699ac88507c4f5bb9f121c03808c5676a8078fe583e4649700916001600160a01b0390911690639cd07acb9061123190879087906004016118cb565b6020604051808303815f875af115801561124d573d5f803e3d5ffd5b505050506040513d601f19601f82011682018060405250810190610f2e9190611895565b5f8082156112845750600160f81b611287565b505f5b7f9e7b61f58c47dc699ac88507c4f5bb9f121c03808c5676a8078fe583e464970154604051630afe14ad60e31b815260048101879052602481018690526001600160f81b0319831660448201527f9e7b61f58c47dc699ac88507c4f5bb9f121c03808c5676a8078fe583e4649700916001600160a01b0316906357f0a568906064015b6020604051808303815f875af1158015611326573d5f803e3d5ffd5b505050506040513d601f19601f8201168201806040525081019061134a9190611895565b9695505050505050565b5f8082156113675750600160f81b61136a565b505f5b7f9e7b61f58c47dc699ac88507c4f5bb9f121c03808c5676a8078fe583e46497015460405163022f65e760e31b815260048101879052602481018690526001600160f81b0319831660448201527f9e7b61f58c47dc699ac88507c4f5bb9f121c03808c5676a8078fe583e4649700916001600160a01b03169063117b2f389060640161130a565b5f8082156114045750600160f81b611407565b505f5b7f9e7b61f58c47dc699ac88507c4f5bb9f121c03808c5676a8078fe583e464970154604051631391547f60e01b815260048101879052602481018690526001600160f81b0319831660448201527f9e7b61f58c47dc699ac88507c4f5bb9f121c03808c5676a8078fe583e4649700916001600160a01b031690631391547f9060640161130a565b5f807f9e7b61f58c47dc699ac88507c4f5bb9f121c03808c5676a8078fe583e46497006001810154604051637702dcff60e01b81526004810188905260248101879052604481018690529192506001600160a01b031690637702dcff906064016020604051808303815f875af115801561150a573d5f803e3d5ffd5b505050506040513d601f19601f8201168201806040525081019061152e9190611895565b95945050505050565b6001830191839082156115c2579160200282015f5b8382111561159057835183826101000a81548163ffffffff021916908363ffffffff160217905550926020019260040160208160030104928301926001030261154c565b80156115c05782816101000a81549063ffffffff0219169055600401602081600301049283019260010302611590565b505b50610f529291506115ed565b6040518061010001604052806008906020820280368337509192915050565b5b80821115610f52575f81556001016115ee565b5f60208284031215611611575f80fd5b81356001600160a01b0381168114610e68575f80fd5b803563ffffffff8116811461163a575f80fd5b919050565b5f82601f83011261164e575f80fd5b60405161010080820182811067ffffffffffffffff8211171561167f57634e487b7160e01b5f52604160045260245ffd5b60405283018185821115611691575f80fd5b845b828110156116b2576116a481611627565b825260209182019101611693565b509195945050505050565b5f805f8061024085870312156116d1575f80fd5b6116db868661163f565b93506116eb86610100870161163f565b92506116fa6102008601611627565b91506117096102208601611627565b905092959194509250565b5f60208284031215611724575f80fd5b5035919050565b5f805f610120848603121561173e575f80fd5b61010084018581111561174f575f80fd5b8493503567ffffffffffffffff80821115611768575f80fd5b818601915086601f83011261177b575f80fd5b813581811115611789575f80fd5b87602082850101111561179a575f80fd5b6020830194508093505050509250925092565b634e487b7160e01b5f52601160045260245ffd5b63ffffffff8181168382160190808211156117de576117de6117ad565b5092915050565b634e487b7160e01b5f52603260045260245ffd5b80820180821115610d8357610d836117ad565b6054811061182857634e487b7160e01b5f52602160045260245ffd5b9052565b8481525f60206001600160a01b03861660208401526080604084015284518060808501525f5b8181101561186e5786810183015185820160a001528201611852565b505f60a0828601015260a0601f19601f8301168501019250505061152e606083018461180c565b5f602082840312156118a5575f80fd5b5051919050565b5f602082840312156118bc575f80fd5b81518015158114610e68575f80fd5b82815260408101610e68602083018461180c56fea2646970667358221220611e9fa6306e9aac0e2a00149546c903be0d30f30213176892f7e9e087de864764736f6c63430008180033",
  "devdoc": {
    "kind": "dev",
    "methods": {},
    "title": "Redact (v2)",
    "version": 1
  },
  "userdoc": {
    "errors": {
      "SenderNotAllowedToUseHandle(bytes32,address)": [
        {
          "notice": "Returned if the sender is not allowed to use the handle."
        }
      ],
      "ZamaProtocolUnsupported()": [
        {
          "notice": "Returned if the Zama protocol is not supported on the current chain"
        }
      ]
    },
    "kind": "user",
    "methods": {
      "MARGIN_GOLD()": {
        "notice": "Margin over the approval line for gold."
      },
      "MARGIN_SILVER()": {
        "notice": "Margin (in score fixed-point units) over the approval line for silver."
      },
      "authorizeLender(address)": {
        "notice": "Grant a lending protocol permission over the caller's verdict AND         tier. Never the score, never the features."
      }
    },
    "notice": "The first confidential AI credit oracle on Ethereum. v2 adds encrypted RISK TIERS on top of the binary verdict:   tier 0: rejected   tier 1: approved, low margin      (bronze)   tier 2: approved, solid margin    (silver)   tier 3: approved, strong margin   (gold) The tier is computed under FHE from the score margin and stored encrypted. A lender the user authorizes can consume the TIER without ever learning the underlying score, and certainly never the raw features. Privacy is graded: the world sees ciphertexts, an authorized lender sees a coarse tier, only the applicant can see the score, and nobody ever sees the inputs. Scoring (all under FHE, unsigned split-weight form):   posSum = bias + sum(posW[i] * f[i])   negSum = threshold + sum(negW[i] * f[i])   approved = posSum >= negSum   margin thresholds: tier2 at negSum + MARGIN_SILVER, tier3 at negSum + MARGIN_GOLD",
    "version": 1
  },
  "storageLayout": {
    "storage": [
      {
        "astId": 42182,
        "contract": "contracts/Redact.sol:Redact",
        "label": "posWeights",
        "offset": 0,
        "slot": "0",
        "type": "t_array(t_uint32)8_storage"
      },
      {
        "astId": 42186,
        "contract": "contracts/Redact.sol:Redact",
        "label": "negWeights",
        "offset": 0,
        "slot": "1",
        "type": "t_array(t_uint32)8_storage"
      },
      {
        "astId": 42188,
        "contract": "contracts/Redact.sol:Redact",
        "label": "bias",
        "offset": 0,
        "slot": "2",
        "type": "t_uint32"
      },
      {
        "astId": 42190,
        "contract": "contracts/Redact.sol:Redact",
        "label": "threshold",
        "offset": 4,
        "slot": "2",
        "type": "t_uint32"
      },
      {
        "astId": 42192,
        "contract": "contracts/Redact.sol:Redact",
        "label": "modelVersion",
        "offset": 8,
        "slot": "2",
        "type": "t_uint32"
      },
      {
        "astId": 42194,
        "contract": "contracts/Redact.sol:Redact",
        "label": "operator",
        "offset": 12,
        "slot": "2",
        "type": "t_address"
      },
      {
        "astId": 42215,
        "contract": "contracts/Redact.sol:Redact",
        "label": "_applications",
        "offset": 0,
        "slot": "3",
        "type": "t_mapping(t_address,t_struct(Application)42210_storage)"
      },
      {
        "astId": 42217,
        "contract": "contracts/Redact.sol:Redact",
        "label": "totalApplications",
        "offset": 0,
        "slot": "4",
        "type": "t_uint256"
      }
    ],
    "types": {
      "t_address": {
        "encoding": "inplace",
        "label": "address",
        "numberOfBytes": "20"
      },
      "t_array(t_uint32)8_storage": {
        "base": "t_uint32",
        "encoding": "inplace",
        "label": "uint32[8]",
        "numberOfBytes": "32"
      },
      "t_bool": {
        "encoding": "inplace",
        "label": "bool",
        "numberOfBytes": "1"
      },
      "t_mapping(t_address,t_struct(Application)42210_storage)": {
        "encoding": "mapping",
        "key": "t_address",
        "label": "mapping(address => struct Redact.Application)",
        "numberOfBytes": "32",
        "value": "t_struct(Application)42210_storage"
      },
      "t_struct(Application)42210_storage": {
        "encoding": "inplace",
        "label": "struct Redact.Application",
        "members": [
          {
            "astId": 42197,
            "contract": "contracts/Redact.sol:Redact",
            "label": "encryptedScore",
            "offset": 0,
            "slot": "0",
            "type": "t_userDefinedValueType(euint32)43334"
          },
          {
            "astId": 42200,
            "contract": "contracts/Redact.sol:Redact",
            "label": "encryptedApproved",
            "offset": 0,
            "slot": "1",
            "type": "t_userDefinedValueType(ebool)43326"
          },
          {
            "astId": 42203,
            "contract": "contracts/Redact.sol:Redact",
            "label": "encryptedTier",
            "offset": 0,
            "slot": "2",
            "type": "t_userDefinedValueType(euint32)43334"
          },
          {
            "astId": 42205,
            "contract": "contracts/Redact.sol:Redact",
            "label": "timestamp",
            "offset": 0,
            "slot": "3",
            "type": "t_uint256"
          },
          {
            "astId": 42207,
            "contract": "contracts/Redact.sol:Redact",
            "label": "modelVersionAtSubmission",
            "offset": 0,
            "slot": "4",
            "type": "t_uint32"
          },
          {
            "astId": 42209,
            "contract": "contracts/Redact.sol:Redact",
            "label": "exists",
            "offset": 4,
            "slot": "4",
            "type": "t_bool"
          }
        ],
        "numberOfBytes": "160"
      },
      "t_uint256": {
        "encoding": "inplace",
        "label": "uint256",
        "numberOfBytes": "32"
      },
      "t_uint32": {
        "encoding": "inplace",
        "label": "uint32",
        "numberOfBytes": "4"
      },
      "t_userDefinedValueType(ebool)43326": {
        "encoding": "inplace",
        "label": "ebool",
        "numberOfBytes": "32"
      },
      "t_userDefinedValueType(euint32)43334": {
        "encoding": "inplace",
        "label": "euint32",
        "numberOfBytes": "32"
      }
    }
  }
}