{
  "address": "0x0e4eC1B0158615D6F266C8936198B71b357Ab45a",
  "abi": [
    {
      "inputs": [
        {
          "internalType": "address",
          "name": "_oracle",
          "type": "address"
        },
        {
          "internalType": "address",
          "name": "_token",
          "type": "address"
        }
      ],
      "stateMutability": "nonpayable",
      "type": "constructor"
    },
    {
      "inputs": [],
      "name": "InvalidKMSSignatures",
      "type": "error"
    },
    {
      "inputs": [],
      "name": "ZamaProtocolUnsupported",
      "type": "error"
    },
    {
      "anonymous": false,
      "inputs": [
        {
          "indexed": true,
          "internalType": "address",
          "name": "borrower",
          "type": "address"
        },
        {
          "indexed": false,
          "internalType": "uint8",
          "name": "tier",
          "type": "uint8"
        },
        {
          "indexed": false,
          "internalType": "uint256",
          "name": "principal",
          "type": "uint256"
        },
        {
          "indexed": false,
          "internalType": "uint256",
          "name": "amountDue",
          "type": "uint256"
        },
        {
          "indexed": false,
          "internalType": "uint256",
          "name": "dueAt",
          "type": "uint256"
        }
      ],
      "name": "LoanIssued",
      "type": "event"
    },
    {
      "anonymous": false,
      "inputs": [
        {
          "indexed": true,
          "internalType": "address",
          "name": "borrower",
          "type": "address"
        }
      ],
      "name": "LoanRejected",
      "type": "event"
    },
    {
      "anonymous": false,
      "inputs": [
        {
          "indexed": true,
          "internalType": "address",
          "name": "borrower",
          "type": "address"
        },
        {
          "indexed": false,
          "internalType": "uint256",
          "name": "amount",
          "type": "uint256"
        }
      ],
      "name": "LoanRepaid",
      "type": "event"
    },
    {
      "anonymous": false,
      "inputs": [
        {
          "indexed": true,
          "internalType": "address",
          "name": "borrower",
          "type": "address"
        },
        {
          "indexed": false,
          "internalType": "bytes32",
          "name": "tierHandle",
          "type": "bytes32"
        }
      ],
      "name": "LoanRequested",
      "type": "event"
    },
    {
      "anonymous": false,
      "inputs": [
        {
          "indexed": false,
          "internalType": "bytes32[]",
          "name": "handlesList",
          "type": "bytes32[]"
        },
        {
          "indexed": false,
          "internalType": "bytes",
          "name": "abiEncodedCleartexts",
          "type": "bytes"
        }
      ],
      "name": "PublicDecryptionVerified",
      "type": "event"
    },
    {
      "inputs": [],
      "name": "INTEREST_BPS",
      "outputs": [
        {
          "internalType": "uint256",
          "name": "",
          "type": "uint256"
        }
      ],
      "stateMutability": "view",
      "type": "function"
    },
    {
      "inputs": [],
      "name": "TERM",
      "outputs": [
        {
          "internalType": "uint256",
          "name": "",
          "type": "uint256"
        }
      ],
      "stateMutability": "view",
      "type": "function"
    },
    {
      "inputs": [],
      "name": "cancelRequest",
      "outputs": [],
      "stateMutability": "nonpayable",
      "type": "function"
    },
    {
      "inputs": [],
      "name": "confidentialProtocolId",
      "outputs": [
        {
          "internalType": "uint256",
          "name": "",
          "type": "uint256"
        }
      ],
      "stateMutability": "view",
      "type": "function"
    },
    {
      "inputs": [
        {
          "internalType": "address",
          "name": "borrower",
          "type": "address"
        },
        {
          "internalType": "bytes",
          "name": "abiEncodedClearTier",
          "type": "bytes"
        },
        {
          "internalType": "bytes",
          "name": "decryptionProof",
          "type": "bytes"
        }
      ],
      "name": "finalizeLoan",
      "outputs": [],
      "stateMutability": "nonpayable",
      "type": "function"
    },
    {
      "inputs": [],
      "name": "liquidity",
      "outputs": [
        {
          "internalType": "uint256",
          "name": "",
          "type": "uint256"
        }
      ],
      "stateMutability": "view",
      "type": "function"
    },
    {
      "inputs": [
        {
          "internalType": "address",
          "name": "",
          "type": "address"
        }
      ],
      "name": "loans",
      "outputs": [
        {
          "internalType": "uint256",
          "name": "principal",
          "type": "uint256"
        },
        {
          "internalType": "uint256",
          "name": "amountDue",
          "type": "uint256"
        },
        {
          "internalType": "uint256",
          "name": "dueAt",
          "type": "uint256"
        },
        {
          "internalType": "uint8",
          "name": "tier",
          "type": "uint8"
        },
        {
          "internalType": "bool",
          "name": "active",
          "type": "bool"
        }
      ],
      "stateMutability": "view",
      "type": "function"
    },
    {
      "inputs": [],
      "name": "oracle",
      "outputs": [
        {
          "internalType": "contract IRedact",
          "name": "",
          "type": "address"
        }
      ],
      "stateMutability": "view",
      "type": "function"
    },
    {
      "inputs": [
        {
          "internalType": "address",
          "name": "",
          "type": "address"
        }
      ],
      "name": "pending",
      "outputs": [
        {
          "internalType": "uint256",
          "name": "requestedAt",
          "type": "uint256"
        },
        {
          "internalType": "euint32",
          "name": "tierHandle",
          "type": "bytes32"
        },
        {
          "internalType": "bool",
          "name": "exists",
          "type": "bool"
        }
      ],
      "stateMutability": "view",
      "type": "function"
    },
    {
      "inputs": [
        {
          "internalType": "uint8",
          "name": "tier",
          "type": "uint8"
        }
      ],
      "name": "principalForTier",
      "outputs": [
        {
          "internalType": "uint256",
          "name": "",
          "type": "uint256"
        }
      ],
      "stateMutability": "pure",
      "type": "function"
    },
    {
      "inputs": [],
      "name": "repay",
      "outputs": [],
      "stateMutability": "nonpayable",
      "type": "function"
    },
    {
      "inputs": [],
      "name": "requestLoan",
      "outputs": [],
      "stateMutability": "nonpayable",
      "type": "function"
    },
    {
      "inputs": [],
      "name": "token",
      "outputs": [
        {
          "internalType": "contract IERC20",
          "name": "",
          "type": "address"
        }
      ],
      "stateMutability": "view",
      "type": "function"
    },
    {
      "inputs": [],
      "name": "totalLoansIssued",
      "outputs": [
        {
          "internalType": "uint256",
          "name": "",
          "type": "uint256"
        }
      ],
      "stateMutability": "view",
      "type": "function"
    },
    {
      "inputs": [],
      "name": "totalLoansRejected",
      "outputs": [
        {
          "internalType": "uint256",
          "name": "",
          "type": "uint256"
        }
      ],
      "stateMutability": "view",
      "type": "function"
    }
  ],
  "transactionHash": "0x6117a1e38382f9677ec2009295b49a69cef8dbceb0f10be20ecdb509537bc2e2",
  "args": [
    "0xc3f4d0cBA1E1b4813C36a896C16961EFFee180AD",
    "0x16107239DE7017a9DFc99dD30d7A7b8e0058fe35"
  ],
  "numDeployments": 2,
  "solcInputHash": "070e7118f4432d49267b6d7aa3cbf26e",
  "bytecode": "0x60c060405234801562000010575f80fd5b506040516200177c3803806200177c833981016040819052620000339162000384565b620000ea62000041620001b6565b80517f9e7b61f58c47dc699ac88507c4f5bb9f121c03808c5676a8078fe583e464970080546001600160a01b03199081166001600160a01b039384161790915560208301517f9e7b61f58c47dc699ac88507c4f5bb9f121c03808c5676a8078fe583e46497018054831691841691909117905560408301517f9e7b61f58c47dc699ac88507c4f5bb9f121c03808c5676a8078fe583e46497028054909216921691909117905550565b6001600160a01b038216620001465760405162461bcd60e51b815260206004820152601a60248201527f5265646163744c656e64696e673a207a65726f206f7261636c6500000000000060448201526064015b60405180910390fd5b6001600160a01b0381166200019e5760405162461bcd60e51b815260206004820152601960248201527f5265646163744c656e64696e673a207a65726f20746f6b656e0000000000000060448201526064016200013d565b6001600160a01b039182166080521660a052620003ba565b604080516060810182525f80825260208201819052918101919091524660010362000250575060408051606080820183525f8083526020808401829052928401528251908101835273ca2e8f1f656cd25c01f05d0b243ab1ecd4a8ffb6815273d82385dada1ae3e969447f20a3164f6213100e75918101919091527377627828a55156b04ac0dc0eb30467f1a552bb039181019190915290565b4662aa36a703620002d0575060408051606080820183525f8083526020808401829052928401528251908101835273f0ffdc93b7e186bc2f8cb3daa75d86d1930a433d81527392c920834ec8941d2c77d188936e1f7a6f49c1279181019190915273be0e383937d564d7ff0bc3b46c51f0bf8d5c311a9181019190915290565b46617a69036200034f575060408051606080820183525f808352602080840182905292840152825190810183527350157cffd6bbfa2dece204a89ec419c23ef5755d815273e3a9105a3a932253a70f126eb1e3b589c643dd249181019190915273901f8942346f7ab3a01f6d7613119bca447bb0309181019190915290565b6040516373cac13b60e01b815260040160405180910390fd5b80516001600160a01b03811681146200037f575f80fd5b919050565b5f806040838503121562000396575f80fd5b620003a18362000368565b9150620003b16020840162000368565b90509250929050565b60805160a05161137d620003ff5f395f818161027c015281816102b5015281816107340152610bb601525f81816101ff01528181610340015261053a015261137d5ff3fe608060405234801561000f575f80fd5b50600436106100f0575f3560e01c80637dc0d1d011610093578063c267fc3411610063578063c267fc3414610252578063c32feb4f14610265578063c7959d041461026e578063fc0c546a14610277575f80fd5b80637dc0d1d0146101fa578063851b16f5146102395780638927b03014610241578063bc03bfee14610249575f80fd5b80635ea25e28116100ce5780635ea25e28146101215780635eebea201461012b5780636c8ab8aa1461017957806373b4086b1461018c575f80fd5b80631a686502146100f4578063257965f51461010f578063402d888314610119575b5f80fd5b6100fc61029e565b6040519081526020015b60405180910390f35b61011761032b565b005b610117610637565b6100fc62278d0081565b61015c61013936600461100c565b5f6020819052908152604090208054600182015460029092015490919060ff1683565b604080519384526020840192909252151590820152606001610106565b6100fc61018736600461102c565b61082c565b6101cd61019a36600461100c565b600160208190525f9182526040909120805491810154600282015460039092015490919060ff8082169161010090041685565b6040805195865260208601949094529284019190915260ff1660608301521515608082015260a001610106565b6102217f000000000000000000000000000000000000000000000000000000000000000081565b6040516001600160a01b039091168152602001610106565b610117610876565b6100fc610907565b6100fc6101f481565b6101176102603660046110e9565b610910565b6100fc60035481565b6100fc60025481565b6102217f000000000000000000000000000000000000000000000000000000000000000081565b6040516370a0823160e01b81523060048201525f907f00000000000000000000000000000000000000000000000000000000000000006001600160a01b0316906370a0823190602401602060405180830381865afa158015610302573d5f803e3d5ffd5b505050506040513d601f19601f820116820180604052508101906103269190611158565b905090565b60405163319dbac360e11b81523360048201527f00000000000000000000000000000000000000000000000000000000000000006001600160a01b03169063633b758690602401602060405180830381865afa15801561038d573d5f803e3d5ffd5b505050506040513d601f19601f820116820180604052508101906103b1919061116f565b61040e5760405162461bcd60e51b8152602060048201526024808201527f5265646163744c656e64696e673a206e6f20637265646974206170706c6963616044820152633a34b7b760e11b60648201526084015b60405180910390fd5b335f9081526020819052604090206002015460ff16156104965760405162461bcd60e51b815260206004820152602660248201527f5265646163744c656e64696e673a207265717565737420616c7265616479207060448201527f656e64696e6700000000000000000000000000000000000000000000000000006064820152608401610405565b335f90815260016020526040902060030154610100900460ff16156105235760405162461bcd60e51b815260206004820152602660248201527f5265646163744c656e64696e673a20616374697665206c6f616e206f7574737460448201527f616e64696e6700000000000000000000000000000000000000000000000000006064820152608401610405565b60405163043e18b560e41b81523360048201525f907f00000000000000000000000000000000000000000000000000000000000000006001600160a01b0316906343e18b5090602401602060405180830381865afa158015610587573d5f803e3d5ffd5b505050506040513d601f19601f820116820180604052508101906105ab9190611158565b90506105b681610cdb565b506040805160608101825242815260208082018481526001838501818152335f818152948590529590932093518455905190830155516002909101805460ff19169115159190911790557f40e82f10d47bfa9150cc9af41f5067ac6105a8da41c6c478e097aa54a56d4f7c826040519081526020015b60405180910390a250565b335f90815260016020818152604092839020835160a08101855281548152928101549183019190915260028101549282019290925260039091015460ff8082166060840152610100909104161515608082018190526106d85760405162461bcd60e51b815260206004820152601d60248201527f5265646163744c656e64696e673a206e6f20616374697665206c6f616e0000006044820152606401610405565b335f81815260016020818152604080842084815592830184905560028301939093556003909101805461ffff1916905583015190516323b872dd60e01b8152600481019290925230602483015260448201526001600160a01b037f000000000000000000000000000000000000000000000000000000000000000016906323b872dd906064016020604051808303815f875af115801561077a573d5f803e3d5ffd5b505050506040513d601f19601f8201168201806040525081019061079e919061116f565b6107f65760405162461bcd60e51b8152602060048201526024808201527f5265646163744c656e64696e673a207265706179207472616e736665722066616044820152631a5b195960e21b6064820152608401610405565b60208082015160405190815233917fc200a1f31dd659e356e0f112c82558e25f49f7b0f84438691cd96f5cb3558823910161062c565b5f8160ff166001036108435750631dcd6500919050565b8160ff166002036108595750633b9aca00919050565b60038260ff161061086f5750639502f900919050565b505f919050565b335f9081526020819052604090206002015460ff166108e15760405162461bcd60e51b815260206004820152602160248201527f5265646163744c656e64696e673a206e6f2070656e64696e67207265717565736044820152601d60fa1b6064820152608401610405565b335f9081526020819052604081208181556001810191909155600201805460ff19169055565b5f610326610cfa565b6001600160a01b0383165f90815260208181526040918290208251606081018452815481526001820154928101929092526002015460ff161515918101829052906109a75760405162461bcd60e51b815260206004820152602160248201527f5265646163744c656e64696e673a206e6f2070656e64696e67207265717565736044820152601d60fa1b6064820152608401610405565b6001600160a01b0384165f9081526020819052604080822082815560018082018490556002909101805460ff1916905581518181528083019092528160200160208202803683375050506020830151909150815f81518110610a0b57610a0b61118e565b602002602001018181525050610a22818585610d2e565b5f84806020019051810190610a3791906111a2565b90505f60038263ffffffff1611610a4e5781610a51565b60035b90505f610a5d8261082c565b9050805f03610aba57600160035f828254610a7891906111d9565b90915550506040516001600160a01b038916907ff69170ee76f8a6a95456f612cc92fc2ad4ec55edc7240b9795a900df0603a768905f90a25050505050505050565b5f612710610aca6101f4846111ec565b610ad49190611203565b610ade90836111d9565b90506040518060a0016040528083815260200182815260200162278d0042610b0691906111d9565b815260ff808616602080840191909152600160409384018190526001600160a01b038e165f9081528183528481208651815592860151838301559385015160028084019190915560608601516003909301805460809097015115156101000261ffff199097169390941692909217949094179091558054909190610b8b9084906111d9565b909155505060405163a9059cbb60e01b81526001600160a01b038a81166004830152602482018490527f0000000000000000000000000000000000000000000000000000000000000000169063a9059cbb906044016020604051808303815f875af1158015610bfc573d5f803e3d5ffd5b505050506040513d601f19601f82011682018060405250810190610c20919061116f565b610c6c5760405162461bcd60e51b815260206004820152601c60248201527f5265646163744c656e64696e673a207061796f7574206661696c6564000000006044820152606401610405565b6001600160a01b0389165f8181526001602090815260409182902060020154825160ff88168152918201869052818301859052606082015290517f2e9d88ce10c89020baa7845e7fc8466b69995707784617c0f1a52dfb78d22b839181900360800190a2505050505050505050565b5f81610ced57610cea5f610d99565b91505b610cf682610db1565b5090565b5f46600103610d095750600190565b4662aa36a703610d1a575061271190565b46617a6903610d2957505f1990565b505f90565b5f610d3a848484610e74565b905080610d5a5760405163cf6c44e960e01b815260040160405180910390fd5b7fc6366bab028b8d033cb362cfd1f2f3457ef4e92fc738b6788b90d5a7846367a08484604051610d8b92919061129f565b60405180910390a150505050565b5f610dab8263ffffffff166004610f34565b92915050565b6040805160018082528183019092527f9e7b61f58c47dc699ac88507c4f5bb9f121c03808c5676a8078fe583e4649700915f91906020808301908036833701905050905082815f81518110610e0857610e0861118e565b60209081029190910101528154604051637d6e912360e11b81526001600160a01b039091169063fadd224690610e429084906004016112c3565b5f604051808303815f87803b158015610e59575f80fd5b505af1158015610e6b573d5f803e3d5ffd5b50505050505050565b7f9e7b61f58c47dc699ac88507c4f5bb9f121c03808c5676a8078fe583e4649702546040516378542ead60e01b81525f917f9e7b61f58c47dc699ac88507c4f5bb9f121c03808c5676a8078fe583e4649700916001600160a01b03909116906378542ead90610eeb908890889088906004016112d5565b6020604051808303815f875af1158015610f07573d5f803e3d5ffd5b505050506040513d601f19601f82011682018060405250810190610f2b919061116f565b95945050505050565b7f9e7b61f58c47dc699ac88507c4f5bb9f121c03808c5676a8078fe583e464970154604051639cd07acb60e01b81525f917f9e7b61f58c47dc699ac88507c4f5bb9f121c03808c5676a8078fe583e4649700916001600160a01b0390911690639cd07acb90610fa99087908790600401611317565b6020604051808303815f875af1158015610fc5573d5f803e3d5ffd5b505050506040513d601f19601f82011682018060405250810190610fe99190611158565b949350505050565b80356001600160a01b0381168114611007575f80fd5b919050565b5f6020828403121561101c575f80fd5b61102582610ff1565b9392505050565b5f6020828403121561103c575f80fd5b813560ff81168114611025575f80fd5b634e487b7160e01b5f52604160045260245ffd5b5f82601f83011261106f575f80fd5b813567ffffffffffffffff8082111561108a5761108a61104c565b604051601f8301601f19908116603f011681019082821181831017156110b2576110b261104c565b816040528381528660208588010111156110ca575f80fd5b836020870160208301375f602085830101528094505050505092915050565b5f805f606084860312156110fb575f80fd5b61110484610ff1565b9250602084013567ffffffffffffffff80821115611120575f80fd5b61112c87838801611060565b93506040860135915080821115611141575f80fd5b5061114e86828701611060565b9150509250925092565b5f60208284031215611168575f80fd5b5051919050565b5f6020828403121561117f575f80fd5b81518015158114611025575f80fd5b634e487b7160e01b5f52603260045260245ffd5b5f602082840312156111b2575f80fd5b815163ffffffff81168114611025575f80fd5b634e487b7160e01b5f52601160045260245ffd5b80820180821115610dab57610dab6111c5565b8082028115828204841417610dab57610dab6111c5565b5f8261121d57634e487b7160e01b5f52601260045260245ffd5b500490565b5f815180845260208085019450602084015f5b8381101561125157815187529582019590820190600101611235565b509495945050505050565b5f81518084525f5b8181101561128057602081850181015186830182015201611264565b505f602082860101526020601f19601f83011685010191505092915050565b604081525f6112b16040830185611222565b8281036020840152610f2b818561125c565b602081525f6110256020830184611222565b606081525f6112e76060830186611222565b82810360208401526112f9818661125c565b9050828103604084015261130d818561125c565b9695505050505050565b828152604081016054831061133a57634e487b7160e01b5f52602160045260245ffd5b826020830152939250505056fea2646970667358221220ca0130440fcbb1940bb29602458cc7ed5f0a239748ebea54b048da62bed0391d64736f6c63430008180033",
  "devdoc": {
    "kind": "dev",
    "methods": {},
    "title": "RedactLendingPool (v2)",
    "version": 1
  },
  "userdoc": {
    "errors": {
      "InvalidKMSSignatures()": [
        {
          "notice": "Returned if the returned KMS signatures are not valid."
        }
      ],
      "ZamaProtocolUnsupported()": [
        {
          "notice": "Returned if the Zama protocol is not supported on the current chain"
        }
      ]
    },
    "events": {
      "PublicDecryptionVerified(bytes32[],bytes)": {
        "notice": "This event is emitted when public decryption has been successfully verified."
      }
    },
    "kind": "user",
    "methods": {
      "cancelRequest()": {
        "notice": "Cancel your own pending request before finalization."
      },
      "finalizeLoan(address,bytes,bytes)": {
        "notice": "Step 2: verify the KMS decryption proof for the tier and settle.         Reverts on forged cleartexts or proofs."
      },
      "liquidity()": {
        "notice": "Pool liquidity available for new loans."
      },
      "principalForTier(uint8)": {
        "notice": "Loan principal for a given tier, in token units (6 decimals)."
      },
      "repay()": {
        "notice": "Repay the outstanding loan in full (principal + interest).         Requires prior token approval to the pool."
      },
      "requestLoan()": {
        "notice": "Step 1: mark the borrower's encrypted tier publicly decryptable         and record the pending request."
      }
    },
    "notice": "Undercollateralized lending against confidential AI risk tiers. v2 changes:  - Pays out REAL tokens (rUSDC) from pool liquidity to the borrower's wallet.  - Loan size is priced by the encrypted RISK TIER, not a binary verdict:      tier 0: rejected, no loan      tier 1: 500 rUSDC      tier 2: 1,000 rUSDC      tier 3: 2,500 rUSDC  - Loans carry 5 percent interest and a 30 day term. Privacy model: the pool learns the borrower's coarse tier (with a KMS proof it is genuine) and nothing else. The raw features and the numeric score stay encrypted forever. Flow:  1. Borrower submits an encrypted application to Redact.  2. Borrower calls redact.authorizeLender(pool).  3. Borrower calls requestLoan(). The pool marks the encrypted tier publicly     decryptable and records the pending request.  4. The borrower's client publicly decrypts the tier via the Zama relayer,     obtaining the clear tier and a KMS decryption proof.  5. Anyone calls finalizeLoan(borrower, clearTier, proof). FHE.checkSignatures     reverts on forged values. On a valid tier >= 1, tokens transfer.",
    "version": 1
  },
  "storageLayout": {
    "storage": [
      {
        "astId": 42901,
        "contract": "contracts/RedactLendingPool.sol:RedactLendingPool",
        "label": "pending",
        "offset": 0,
        "slot": "0",
        "type": "t_mapping(t_address,t_struct(PendingLoan)42885_storage)"
      },
      {
        "astId": 42906,
        "contract": "contracts/RedactLendingPool.sol:RedactLendingPool",
        "label": "loans",
        "offset": 0,
        "slot": "1",
        "type": "t_mapping(t_address,t_struct(Loan)42896_storage)"
      },
      {
        "astId": 42908,
        "contract": "contracts/RedactLendingPool.sol:RedactLendingPool",
        "label": "totalLoansIssued",
        "offset": 0,
        "slot": "2",
        "type": "t_uint256"
      },
      {
        "astId": 42910,
        "contract": "contracts/RedactLendingPool.sol:RedactLendingPool",
        "label": "totalLoansRejected",
        "offset": 0,
        "slot": "3",
        "type": "t_uint256"
      }
    ],
    "types": {
      "t_address": {
        "encoding": "inplace",
        "label": "address",
        "numberOfBytes": "20"
      },
      "t_bool": {
        "encoding": "inplace",
        "label": "bool",
        "numberOfBytes": "1"
      },
      "t_mapping(t_address,t_struct(Loan)42896_storage)": {
        "encoding": "mapping",
        "key": "t_address",
        "label": "mapping(address => struct RedactLendingPool.Loan)",
        "numberOfBytes": "32",
        "value": "t_struct(Loan)42896_storage"
      },
      "t_mapping(t_address,t_struct(PendingLoan)42885_storage)": {
        "encoding": "mapping",
        "key": "t_address",
        "label": "mapping(address => struct RedactLendingPool.PendingLoan)",
        "numberOfBytes": "32",
        "value": "t_struct(PendingLoan)42885_storage"
      },
      "t_struct(Loan)42896_storage": {
        "encoding": "inplace",
        "label": "struct RedactLendingPool.Loan",
        "members": [
          {
            "astId": 42887,
            "contract": "contracts/RedactLendingPool.sol:RedactLendingPool",
            "label": "principal",
            "offset": 0,
            "slot": "0",
            "type": "t_uint256"
          },
          {
            "astId": 42889,
            "contract": "contracts/RedactLendingPool.sol:RedactLendingPool",
            "label": "amountDue",
            "offset": 0,
            "slot": "1",
            "type": "t_uint256"
          },
          {
            "astId": 42891,
            "contract": "contracts/RedactLendingPool.sol:RedactLendingPool",
            "label": "dueAt",
            "offset": 0,
            "slot": "2",
            "type": "t_uint256"
          },
          {
            "astId": 42893,
            "contract": "contracts/RedactLendingPool.sol:RedactLendingPool",
            "label": "tier",
            "offset": 0,
            "slot": "3",
            "type": "t_uint8"
          },
          {
            "astId": 42895,
            "contract": "contracts/RedactLendingPool.sol:RedactLendingPool",
            "label": "active",
            "offset": 1,
            "slot": "3",
            "type": "t_bool"
          }
        ],
        "numberOfBytes": "128"
      },
      "t_struct(PendingLoan)42885_storage": {
        "encoding": "inplace",
        "label": "struct RedactLendingPool.PendingLoan",
        "members": [
          {
            "astId": 42879,
            "contract": "contracts/RedactLendingPool.sol:RedactLendingPool",
            "label": "requestedAt",
            "offset": 0,
            "slot": "0",
            "type": "t_uint256"
          },
          {
            "astId": 42882,
            "contract": "contracts/RedactLendingPool.sol:RedactLendingPool",
            "label": "tierHandle",
            "offset": 0,
            "slot": "1",
            "type": "t_userDefinedValueType(euint32)43334"
          },
          {
            "astId": 42884,
            "contract": "contracts/RedactLendingPool.sol:RedactLendingPool",
            "label": "exists",
            "offset": 0,
            "slot": "2",
            "type": "t_bool"
          }
        ],
        "numberOfBytes": "96"
      },
      "t_uint256": {
        "encoding": "inplace",
        "label": "uint256",
        "numberOfBytes": "32"
      },
      "t_uint8": {
        "encoding": "inplace",
        "label": "uint8",
        "numberOfBytes": "1"
      },
      "t_userDefinedValueType(euint32)43334": {
        "encoding": "inplace",
        "label": "euint32",
        "numberOfBytes": "32"
      }
    }
  }
}