{
  "address": "0x40088cC4Eae005C4D3F4288AaBd4833480c4CeB6",
  "abi": [
    {
      "inputs": [
        {
          "internalType": "address",
          "name": "_oracle",
          "type": "address"
        },
        {
          "internalType": "uint256",
          "name": "_maxLoanPerUser",
          "type": "uint256"
        }
      ],
      "stateMutability": "nonpayable",
      "type": "constructor"
    },
    {
      "inputs": [],
      "name": "InvalidKMSSignatures",
      "type": "error"
    },
    {
      "inputs": [],
      "name": "ZamaProtocolUnsupported",
      "type": "error"
    },
    {
      "anonymous": false,
      "inputs": [
        {
          "indexed": true,
          "internalType": "address",
          "name": "borrower",
          "type": "address"
        },
        {
          "indexed": false,
          "internalType": "uint256",
          "name": "amount",
          "type": "uint256"
        }
      ],
      "name": "LoanApproved",
      "type": "event"
    },
    {
      "anonymous": false,
      "inputs": [
        {
          "indexed": true,
          "internalType": "address",
          "name": "borrower",
          "type": "address"
        },
        {
          "indexed": false,
          "internalType": "uint256",
          "name": "amount",
          "type": "uint256"
        }
      ],
      "name": "LoanRejected",
      "type": "event"
    },
    {
      "anonymous": false,
      "inputs": [
        {
          "indexed": true,
          "internalType": "address",
          "name": "borrower",
          "type": "address"
        },
        {
          "indexed": false,
          "internalType": "uint256",
          "name": "amount",
          "type": "uint256"
        }
      ],
      "name": "LoanRepaid",
      "type": "event"
    },
    {
      "anonymous": false,
      "inputs": [
        {
          "indexed": true,
          "internalType": "address",
          "name": "borrower",
          "type": "address"
        },
        {
          "indexed": false,
          "internalType": "uint256",
          "name": "amount",
          "type": "uint256"
        },
        {
          "indexed": false,
          "internalType": "bytes32",
          "name": "verdictHandle",
          "type": "bytes32"
        }
      ],
      "name": "LoanRequested",
      "type": "event"
    },
    {
      "anonymous": false,
      "inputs": [
        {
          "indexed": false,
          "internalType": "bytes32[]",
          "name": "handlesList",
          "type": "bytes32[]"
        },
        {
          "indexed": false,
          "internalType": "bytes",
          "name": "abiEncodedCleartexts",
          "type": "bytes"
        }
      ],
      "name": "PublicDecryptionVerified",
      "type": "event"
    },
    {
      "inputs": [],
      "name": "cancelRequest",
      "outputs": [],
      "stateMutability": "nonpayable",
      "type": "function"
    },
    {
      "inputs": [],
      "name": "confidentialProtocolId",
      "outputs": [
        {
          "internalType": "uint256",
          "name": "",
          "type": "uint256"
        }
      ],
      "stateMutability": "view",
      "type": "function"
    },
    {
      "inputs": [
        {
          "internalType": "address",
          "name": "borrower",
          "type": "address"
        },
        {
          "internalType": "bytes",
          "name": "abiEncodedClearVerdict",
          "type": "bytes"
        },
        {
          "internalType": "bytes",
          "name": "decryptionProof",
          "type": "bytes"
        }
      ],
      "name": "finalizeLoan",
      "outputs": [],
      "stateMutability": "nonpayable",
      "type": "function"
    },
    {
      "inputs": [
        {
          "internalType": "address",
          "name": "",
          "type": "address"
        }
      ],
      "name": "loanBalance",
      "outputs": [
        {
          "internalType": "uint256",
          "name": "",
          "type": "uint256"
        }
      ],
      "stateMutability": "view",
      "type": "function"
    },
    {
      "inputs": [],
      "name": "maxLoanPerUser",
      "outputs": [
        {
          "internalType": "uint256",
          "name": "",
          "type": "uint256"
        }
      ],
      "stateMutability": "view",
      "type": "function"
    },
    {
      "inputs": [],
      "name": "oracle",
      "outputs": [
        {
          "internalType": "contract IRedact",
          "name": "",
          "type": "address"
        }
      ],
      "stateMutability": "view",
      "type": "function"
    },
    {
      "inputs": [
        {
          "internalType": "address",
          "name": "",
          "type": "address"
        }
      ],
      "name": "pending",
      "outputs": [
        {
          "internalType": "uint256",
          "name": "amount",
          "type": "uint256"
        },
        {
          "internalType": "uint256",
          "name": "requestedAt",
          "type": "uint256"
        },
        {
          "internalType": "ebool",
          "name": "verdictHandle",
          "type": "bytes32"
        },
        {
          "internalType": "bool",
          "name": "exists",
          "type": "bool"
        }
      ],
      "stateMutability": "view",
      "type": "function"
    },
    {
      "inputs": [
        {
          "internalType": "uint256",
          "name": "amount",
          "type": "uint256"
        }
      ],
      "name": "repay",
      "outputs": [],
      "stateMutability": "nonpayable",
      "type": "function"
    },
    {
      "inputs": [
        {
          "internalType": "uint256",
          "name": "amount",
          "type": "uint256"
        }
      ],
      "name": "requestLoan",
      "outputs": [],
      "stateMutability": "nonpayable",
      "type": "function"
    },
    {
      "inputs": [],
      "name": "totalLoansIssued",
      "outputs": [
        {
          "internalType": "uint256",
          "name": "",
          "type": "uint256"
        }
      ],
      "stateMutability": "view",
      "type": "function"
    },
    {
      "inputs": [],
      "name": "totalLoansRejected",
      "outputs": [
        {
          "internalType": "uint256",
          "name": "",
          "type": "uint256"
        }
      ],
      "stateMutability": "view",
      "type": "function"
    }
  ],
  "transactionHash": "0xf9128f6b184dc02df92802e872140a5c84864c785bc8a8dbdc916db9c512118e",
  "args": [
    "0x3d00D0779A76b32B6916A895570B4DE5e4ECF5f4",
    "10000000000"
  ],
  "numDeployments": 1,
  "solcInputHash": "ed8f88e3e092ec7a70ca4bf8438dd93e",
  "bytecode": "0x60c060405234801561000f575f80fd5b50604051620013723803806200137283398101604081905261003091610353565b6100e461003b6101a4565b80517f9e7b61f58c47dc699ac88507c4f5bb9f121c03808c5676a8078fe583e464970080546001600160a01b03199081166001600160a01b039384161790915560208301517f9e7b61f58c47dc699ac88507c4f5bb9f121c03808c5676a8078fe583e46497018054831691841691909117905560408301517f9e7b61f58c47dc699ac88507c4f5bb9f121c03808c5676a8078fe583e46497028054909216921691909117905550565b6001600160a01b03821661013f5760405162461bcd60e51b815260206004820152601a60248201527f5265646163744c656e64696e673a207a65726f206f7261636c6500000000000060448201526064015b60405180910390fd5b5f811161018e5760405162461bcd60e51b815260206004820152601c60248201527f5265646163744c656e64696e673a207a65726f206d6178206c6f616e000000006044820152606401610136565b6001600160a01b0390911660805260a05261038a565b604080516060810182525f80825260208201819052918101919091524660010361023d575060408051606080820183525f8083526020808401829052928401528251908101835273ca2e8f1f656cd25c01f05d0b243ab1ecd4a8ffb6815273d82385dada1ae3e969447f20a3164f6213100e75918101919091527377627828a55156b04ac0dc0eb30467f1a552bb039181019190915290565b4662aa36a7036102bc575060408051606080820183525f8083526020808401829052928401528251908101835273f0ffdc93b7e186bc2f8cb3daa75d86d1930a433d81527392c920834ec8941d2c77d188936e1f7a6f49c1279181019190915273be0e383937d564d7ff0bc3b46c51f0bf8d5c311a9181019190915290565b46617a690361033a575060408051606080820183525f808352602080840182905292840152825190810183527350157cffd6bbfa2dece204a89ec419c23ef5755d815273e3a9105a3a932253a70f126eb1e3b589c643dd249181019190915273901f8942346f7ab3a01f6d7613119bca447bb0309181019190915290565b6040516373cac13b60e01b815260040160405180910390fd5b5f8060408385031215610364575f80fd5b82516001600160a01b038116811461037a575f80fd5b6020939093015192949293505050565b60805160a051610faa620003c85f395f818161014001528181610391015261057701525f81816101750152818161041501526106070152610faa5ff3fe608060405234801561000f575f80fd5b50600436106100c4575f3560e01c80638927b0301161007d578063c267fc3411610058578063c267fc34146101f1578063c32feb4f14610204578063c7959d041461020d575f80fd5b80638927b030146101b75780638d5d3429146101bf5780639aae66f9146101d2575f80fd5b806367d34265116100ad57806367d342651461013b5780637dc0d1d014610170578063851b16f5146101af575f80fd5b8063371fd8e6146100c85780635eebea20146100dd575b5f80fd5b6100db6100d6366004610c6d565b610216565b005b6101146100eb366004610c9f565b5f6020819052908152604090208054600182015460028301546003909301549192909160ff1684565b60408051948552602085019390935291830152151560608201526080015b60405180910390f35b6101627f000000000000000000000000000000000000000000000000000000000000000081565b604051908152602001610132565b6101977f000000000000000000000000000000000000000000000000000000000000000081565b6040516001600160a01b039091168152602001610132565b6100db6102df565b610162610377565b6100db6101cd366004610c6d565b610385565b6101626101e0366004610c9f565b60016020525f908152604090205481565b6100db6101ff366004610d5c565b61071e565b61016260035481565b61016260025481565b5f811180156102335750335f908152600160205260409020548111155b6102845760405162461bcd60e51b815260206004820152601860248201527f5265646163744c656e64696e673a20626164207265706179000000000000000060448201526064015b60405180910390fd5b335f90815260016020526040812080548392906102a2908490610ddf565b909155505060405181815233907fc200a1f31dd659e356e0f112c82558e25f49f7b0f84438691cd96f5cb35588239060200160405180910390a250565b335f9081526020819052604090206003015460ff1661034a5760405162461bcd60e51b815260206004820152602160248201527f5265646163744c656e64696e673a206e6f2070656e64696e67207265717565736044820152601d60fa1b606482015260840161027b565b335f908152602081905260408120818155600181018290556002810191909155600301805460ff19169055565b5f61038061094e565b905090565b5f811180156103b457507f00000000000000000000000000000000000000000000000000000000000000008111155b6104005760405162461bcd60e51b815260206004820152601960248201527f5265646163744c656e64696e673a2062616420616d6f756e7400000000000000604482015260640161027b565b60405163319dbac360e11b81523360048201527f00000000000000000000000000000000000000000000000000000000000000006001600160a01b03169063633b758690602401602060405180830381865afa158015610462573d5f803e3d5ffd5b505050506040513d601f19601f820116820180604052508101906104869190610df2565b6104de5760405162461bcd60e51b8152602060048201526024808201527f5265646163744c656e64696e673a206e6f20637265646974206170706c6963616044820152633a34b7b760e11b606482015260840161027b565b335f9081526020819052604090206003015460ff16156105665760405162461bcd60e51b815260206004820152602660248201527f5265646163744c656e64696e673a207265717565737420616c7265616479207060448201527f656e64696e670000000000000000000000000000000000000000000000000000606482015260840161027b565b335f908152600160205260409020547f0000000000000000000000000000000000000000000000000000000000000000906105a2908390610e11565b11156105f05760405162461bcd60e51b815260206004820152601b60248201527f5265646163744c656e64696e673a206361702065786365656465640000000000604482015260640161027b565b604051632ac257c960e01b81523360048201525f907f00000000000000000000000000000000000000000000000000000000000000006001600160a01b031690632ac257c990602401602060405180830381865afa158015610654573d5f803e3d5ffd5b505050506040513d601f19601f820116820180604052508101906106789190610e24565b905061068381610982565b5060408051608081018252838152426020808301918252828401858152600160608501818152335f81815294859052969093209451855592519284019290925590516002830155516003909101805460ff19169115159190911790557f159f8850b3bed139eea18be0d1049e71976c278e6dadd437652ff1a0386259e283836040805192835260208301919091520160405180910390a25050565b6001600160a01b0383165f908152602081815260409182902082516080810184528154815260018201549281019290925260028101549282019290925260039091015460ff161515606082018190526107c35760405162461bcd60e51b815260206004820152602160248201527f5265646163744c656e64696e673a206e6f2070656e64696e67207265717565736044820152601d60fa1b606482015260840161027b565b6001600160a01b0384165f908152602081905260408082208281556001808201849055600282018490556003909101805460ff1916905581518181528083019092528160200160208202803683375050506040830151909150815f8151811061082e5761082e610e3b565b6020026020010181815250506108458185856109a1565b5f8480602001905181019061085a9190610df2565b905080156108ee5782516001600160a01b0387165f908152600160205260408120805490919061088b908490610e11565b92505081905550600160025f8282546108a49190610e11565b909155505082516040519081526001600160a01b038716907f93e6d20b2134c2834b2d150cb5d87de9e77bde683f944766c3c45b793ba8ddad9060200160405180910390a2610946565b600160035f8282546109009190610e11565b909155505082516040519081526001600160a01b038716907fa714a7fc2809c802ef692ad0c341254025eefb18881c5c762085b6d98ee1170a9060200160405180910390a25b505050505050565b5f4660010361095d5750600190565b4662aa36a70361096e575061271190565b46617a690361097d57505f1990565b505f90565b5f81610994576109915f610a0c565b91505b61099d82610a2d565b5090565b5f6109ad848484610af0565b9050806109cd5760405163cf6c44e960e01b815260040160405180910390fd5b7fc6366bab028b8d033cb362cfd1f2f3457ef4e92fc738b6788b90d5a7846367a084846040516109fe929190610ecc565b60405180910390a150505050565b5f610a2782610a1b575f610a1e565b60015b60ff165f610bb0565b92915050565b6040805160018082528183019092527f9e7b61f58c47dc699ac88507c4f5bb9f121c03808c5676a8078fe583e4649700915f91906020808301908036833701905050905082815f81518110610a8457610a84610e3b565b60209081029190910101528154604051637d6e912360e11b81526001600160a01b039091169063fadd224690610abe908490600401610ef0565b5f604051808303815f87803b158015610ad5575f80fd5b505af1158015610ae7573d5f803e3d5ffd5b50505050505050565b7f9e7b61f58c47dc699ac88507c4f5bb9f121c03808c5676a8078fe583e4649702546040516378542ead60e01b81525f917f9e7b61f58c47dc699ac88507c4f5bb9f121c03808c5676a8078fe583e4649700916001600160a01b03909116906378542ead90610b6790889088908890600401610f02565b6020604051808303815f875af1158015610b83573d5f803e3d5ffd5b505050506040513d601f19601f82011682018060405250810190610ba79190610df2565b95945050505050565b7f9e7b61f58c47dc699ac88507c4f5bb9f121c03808c5676a8078fe583e464970154604051639cd07acb60e01b81525f917f9e7b61f58c47dc699ac88507c4f5bb9f121c03808c5676a8078fe583e4649700916001600160a01b0390911690639cd07acb90610c259087908790600401610f44565b6020604051808303815f875af1158015610c41573d5f803e3d5ffd5b505050506040513d601f19601f82011682018060405250810190610c659190610e24565b949350505050565b5f60208284031215610c7d575f80fd5b5035919050565b80356001600160a01b0381168114610c9a575f80fd5b919050565b5f60208284031215610caf575f80fd5b610cb882610c84565b9392505050565b634e487b7160e01b5f52604160045260245ffd5b5f82601f830112610ce2575f80fd5b813567ffffffffffffffff80821115610cfd57610cfd610cbf565b604051601f8301601f19908116603f01168101908282118183101715610d2557610d25610cbf565b81604052838152866020858801011115610d3d575f80fd5b836020870160208301375f602085830101528094505050505092915050565b5f805f60608486031215610d6e575f80fd5b610d7784610c84565b9250602084013567ffffffffffffffff80821115610d93575f80fd5b610d9f87838801610cd3565b93506040860135915080821115610db4575f80fd5b50610dc186828701610cd3565b9150509250925092565b634e487b7160e01b5f52601160045260245ffd5b81810381811115610a2757610a27610dcb565b5f60208284031215610e02575f80fd5b81518015158114610cb8575f80fd5b80820180821115610a2757610a27610dcb565b5f60208284031215610e34575f80fd5b5051919050565b634e487b7160e01b5f52603260045260245ffd5b5f815180845260208085019450602084015f5b83811015610e7e57815187529582019590820190600101610e62565b509495945050505050565b5f81518084525f5b81811015610ead57602081850181015186830182015201610e91565b505f602082860101526020601f19601f83011685010191505092915050565b604081525f610ede6040830185610e4f565b8281036020840152610ba78185610e89565b602081525f610cb86020830184610e4f565b606081525f610f146060830186610e4f565b8281036020840152610f268186610e89565b90508281036040840152610f3a8185610e89565b9695505050505050565b8281526040810160548310610f6757634e487b7160e01b5f52602160045260245ffd5b826020830152939250505056fea2646970667358221220c96b7afba3121c0372eddeee8e65dcc33bcab7157d99d22c67e141794bf1231b64736f6c63430008180033",
  "devdoc": {
    "kind": "dev",
    "methods": {
      "finalizeLoan(address,bytes,bytes)": {
        "details": "Reverts with KMSInvalidSigner if the cleartext or proof is forged,         or if the proof belongs to a different ciphertext.",
        "params": {
          "abiEncodedClearVerdict": "ABI-encoded bool from the relayer's publicDecrypt.",
          "borrower": "The borrower whose request is being settled.",
          "decryptionProof": "KMS decryption proof from the relayer's publicDecrypt."
        }
      },
      "requestLoan(uint256)": {
        "details": "Requires the borrower to have called authorizeLender(this pool) on         Redact first, otherwise this contract has no ACL permission on the         verdict handle and the FHE ops revert.",
        "params": {
          "amount": "The loan amount requested (bounded by maxLoanPerUser)."
        }
      }
    },
    "title": "RedactLendingPool",
    "version": 1
  },
  "userdoc": {
    "errors": {
      "InvalidKMSSignatures()": [
        {
          "notice": "Returned if the returned KMS signatures are not valid."
        }
      ],
      "ZamaProtocolUnsupported()": [
        {
          "notice": "Returned if the Zama protocol is not supported on the current chain"
        }
      ]
    },
    "events": {
      "PublicDecryptionVerified(bytes32[],bytes)": {
        "notice": "This event is emitted when public decryption has been successfully verified."
      }
    },
    "kind": "user",
    "methods": {
      "cancelRequest()": {
        "notice": "Cancel your own pending request (e.g. if you changed your mind         before finalization)."
      },
      "finalizeLoan(address,bytes,bytes)": {
        "notice": "Step 2 of the loan flow. Verifies the KMS decryption proof for the         borrower's verdict and settles the loan request accordingly."
      },
      "repay(uint256)": {
        "notice": "Simple repay function to close out a loan in the demo."
      },
      "requestLoan(uint256)": {
        "notice": "Step 1 of the loan flow. Marks the borrower's encrypted verdict as         publicly decryptable and records the pending request."
      }
    },
    "notice": "A demo undercollateralized lending pool that consumes verdicts from         the Redact confidential credit oracle, using the FHEVM v0.11         self-relaying decryption model.         Flow:           1. Borrower has already submitted an encrypted application to Redact.           2. Borrower calls redact.authorizeLender(address(this)) to consent.           3. Borrower calls requestLoan(amount). The pool marks the encrypted              verdict as publicly decryptable and records the pending request.           4. Offchain, the borrower's client calls publicDecrypt via the Zama              relayer SDK, receiving the clear verdict and a KMS decryption proof.           5. Anyone submits finalizeLoan(borrower, clearVerdict, proof).              The contract rebuilds the ciphertext handle list and calls              FHE.checkSignatures, which reverts unless the cleartext is the              cryptographically genuine decryption of the stored verdict.           6. If approved, the loan is credited. The raw features and the              numeric score never left encryption at any point. The only value              ever revealed is the final yes/no, and only because the borrower              chose to take a loan.",
    "version": 1
  },
  "storageLayout": {
    "storage": [
      {
        "astId": 42727,
        "contract": "contracts/RedactLendingPool.sol:RedactLendingPool",
        "label": "pending",
        "offset": 0,
        "slot": "0",
        "type": "t_mapping(t_address,t_struct(PendingLoan)42722_storage)"
      },
      {
        "astId": 42731,
        "contract": "contracts/RedactLendingPool.sol:RedactLendingPool",
        "label": "loanBalance",
        "offset": 0,
        "slot": "1",
        "type": "t_mapping(t_address,t_uint256)"
      },
      {
        "astId": 42733,
        "contract": "contracts/RedactLendingPool.sol:RedactLendingPool",
        "label": "totalLoansIssued",
        "offset": 0,
        "slot": "2",
        "type": "t_uint256"
      },
      {
        "astId": 42735,
        "contract": "contracts/RedactLendingPool.sol:RedactLendingPool",
        "label": "totalLoansRejected",
        "offset": 0,
        "slot": "3",
        "type": "t_uint256"
      }
    ],
    "types": {
      "t_address": {
        "encoding": "inplace",
        "label": "address",
        "numberOfBytes": "20"
      },
      "t_bool": {
        "encoding": "inplace",
        "label": "bool",
        "numberOfBytes": "1"
      },
      "t_mapping(t_address,t_struct(PendingLoan)42722_storage)": {
        "encoding": "mapping",
        "key": "t_address",
        "label": "mapping(address => struct RedactLendingPool.PendingLoan)",
        "numberOfBytes": "32",
        "value": "t_struct(PendingLoan)42722_storage"
      },
      "t_mapping(t_address,t_uint256)": {
        "encoding": "mapping",
        "key": "t_address",
        "label": "mapping(address => uint256)",
        "numberOfBytes": "32",
        "value": "t_uint256"
      },
      "t_struct(PendingLoan)42722_storage": {
        "encoding": "inplace",
        "label": "struct RedactLendingPool.PendingLoan",
        "members": [
          {
            "astId": 42714,
            "contract": "contracts/RedactLendingPool.sol:RedactLendingPool",
            "label": "amount",
            "offset": 0,
            "slot": "0",
            "type": "t_uint256"
          },
          {
            "astId": 42716,
            "contract": "contracts/RedactLendingPool.sol:RedactLendingPool",
            "label": "requestedAt",
            "offset": 0,
            "slot": "1",
            "type": "t_uint256"
          },
          {
            "astId": 42719,
            "contract": "contracts/RedactLendingPool.sol:RedactLendingPool",
            "label": "verdictHandle",
            "offset": 0,
            "slot": "2",
            "type": "t_userDefinedValueType(ebool)43041"
          },
          {
            "astId": 42721,
            "contract": "contracts/RedactLendingPool.sol:RedactLendingPool",
            "label": "exists",
            "offset": 0,
            "slot": "3",
            "type": "t_bool"
          }
        ],
        "numberOfBytes": "128"
      },
      "t_uint256": {
        "encoding": "inplace",
        "label": "uint256",
        "numberOfBytes": "32"
      },
      "t_userDefinedValueType(ebool)43041": {
        "encoding": "inplace",
        "label": "ebool",
        "numberOfBytes": "32"
      }
    }
  }
}